{
	"data": {
		"bytecode": {
			"linkReferences": {},
			"object": "608060405262107ac060015561271060025561138860035560036004556000600560006101000a81548160ff02191690831515021790555034801561004357600080fd5b50600061005461013860201b60201c565b9050806000806101000a81548173ffffffffffffffffffffffffffffffffffffffff021916908373ffffffffffffffffffffffffffffffffffffffff1602179055508073ffffffffffffffffffffffffffffffffffffffff16600073ffffffffffffffffffffffffffffffffffffffff167f8be0079c531659141344cd1fd0a4f28419497f9722a3daafe3b4186f6b6457e060405160405180910390a35033600560016101000a81548173ffffffffffffffffffffffffffffffffffffffff021916908373ffffffffffffffffffffffffffffffffffffffff160217905550610140565b600033905090565b61161f8061014f6000396000f3fe6080604052600436106100e85760003560e01c80634c515b921161008a5780638da5cb5b116100595780638da5cb5b146102da578063c22c902214610305578063c76ea00114610342578063f2fde38b1461036b576100e8565b80634c515b921461020c57806360c6171c14610249578063715018a61461028657806378373d581461029d576100e8565b806324cad2ec116100c657806324cad2ec146101715780632a7f3e4b146101885780633c5f07cb146101c55780634b634b06146101cf576100e8565b80630c431e93146100ed57806312065fe0146101095780631bb8365f14610134575b600080fd5b61010760048036038101906101029190611243565b610394565b005b34801561011557600080fd5b5061011e6104e8565b60405161012b9190611289565b60405180910390f35b34801561014057600080fd5b5061015b600480360381019061015691906112d0565b6104f0565b6040516101689190611289565b60405180910390f35b34801561017d57600080fd5b50610186610507565b005b34801561019457600080fd5b506101af60048036038101906101aa9190611243565b6106a0565b6040516101bc9190611289565b60405180910390f35b6101cd6106fa565b005b3480156101db57600080fd5b506101f660048036038101906101f19190611243565b6107c7565b6040516102039190611289565b60405180910390f35b34801561021857600080fd5b50610233600480360381019061022e9190611243565b610810565b6040516102409190611289565b60405180910390f35b34801561025557600080fd5b50610270600480360381019061026b9190611310565b6108ba565b60405161027d9190611289565b60405180910390f35b34801561029257600080fd5b5061029b6108cd565b005b3480156102a957600080fd5b506102c460048036038101906102bf9190611310565b610a20565b6040516102d19190611289565b60405180910390f35b3480156102e657600080fd5b506102ef610a36565b6040516102fc919061134c565b60405180910390f35b34801561031157600080fd5b5061032c60048036038101906103279190611243565b610a5f565b6040516103399190611289565b60405180910390f35b34801561034e57600080fd5b5061036960048036038101906103649190611243565b610a84565b005b34801561037757600080fd5b50610392600480360381019061038d9190611243565b610f27565b005b600560009054906101000a900460ff166103ad57600080fd5b60006103c2346103bd4734610fc8565b6104f0565b90506103d6816103d183610fde565b610fc8565b905060006103e334610fde565b9050600560019054906101000a900473ffffffffffffffffffffffffffffffffffffffff1673ffffffffffffffffffffffffffffffffffffffff166108fc829081150290604051600060405180830381858888f1935050505015801561044d573d6000803e3d6000fd5b50610497600760003373ffffffffffffffffffffffffffffffffffffffff1673ffffffffffffffffffffffffffffffffffffffff1681526020019081526020016000205483610ffd565b600760003373ffffffffffffffffffffffffffffffffffffffff1673ffffffffffffffffffffffffffffffffffffffff168152602001908152602001600020819055506104e383610a84565b505050565b600047905090565b60006104ff8383600a54611013565b905092915050565b600560009054906101000a900460ff1661052057600080fd5b600061052b336106a0565b9050600061053882610a20565b9050600061054582610fde565b90506000600760003373ffffffffffffffffffffffffffffffffffffffff1673ffffffffffffffffffffffffffffffffffffffff1681526020019081526020016000208190555042600860003373ffffffffffffffffffffffffffffffffffffffff1673ffffffffffffffffffffffffffffffffffffffff168152602001908152602001600020819055506105dc600a5484610ffd565b600a81905550600560019054906101000a900473ffffffffffffffffffffffffffffffffffffffff1673ffffffffffffffffffffffffffffffffffffffff166108fc829081150290604051600060405180830381858888f1935050505015801561064a573d6000803e3d6000fd5b503373ffffffffffffffffffffffffffffffffffffffff166108fc61066f8484610fc8565b9081150290604051600060405180830381858888f1935050505015801561069a573d6000803e3d6000fd5b50505050565b60006106f3600760008473ffffffffffffffffffffffffffffffffffffffff1673ffffffffffffffffffffffffffffffffffffffff168152602001908152602001600020546106ee84610810565b610ffd565b9050919050565b610702611066565b73ffffffffffffffffffffffffffffffffffffffff1660008054906101000a900473ffffffffffffffffffffffffffffffffffffffff1673ffffffffffffffffffffffffffffffffffffffff161461078f576040517f08c379a0000000000000000000000000000000000000000000000000000000008152600401610786906113c4565b60405180910390fd5b6000600a541461079e57600080fd5b6001600560006101000a81548160ff0219169083151502179055506419254d3800600a81905550565b6000600660008373ffffffffffffffffffffffffffffffffffffffff1673ffffffffffffffffffffffffffffffffffffffff168152602001908152602001600020549050919050565b60008061086760015461086242600860008873ffffffffffffffffffffffffffffffffffffffff1673ffffffffffffffffffffffffffffffffffffffff16815260200190815260200160002054610fc8565b61106e565b90506108b281600660008673ffffffffffffffffffffffffffffffffffffffff1673ffffffffffffffffffffffffffffffffffffffff16815260200190815260200160002054611087565b915050919050565b60006108c682476104f0565b9050919050565b6108d5611066565b73ffffffffffffffffffffffffffffffffffffffff1660008054906101000a900473ffffffffffffffffffffffffffffffffffffffff1673ffffffffffffffffffffffffffffffffffffffff1614610962576040517f08c379a0000000000000000000000000000000000000000000000000000000008152600401610959906113c4565b60405180910390fd5b600073ffffffffffffffffffffffffffffffffffffffff1660008054906101000a900473ffffffffffffffffffffffffffffffffffffffff1673ffffffffffffffffffffffffffffffffffffffff167f8be0079c531659141344cd1fd0a4f28419497f9722a3daafe3b4186f6b6457e060405160405180910390a360008060006101000a81548173ffffffffffffffffffffffffffffffffffffffff021916908373ffffffffffffffffffffffffffffffffffffffff160217905550565b6000610a2f82600a5447611013565b9050919050565b60008060009054906101000a900473ffffffffffffffffffffffffffffffffffffffff16905090565b600080610a6b836106a0565b90506000610a7882610a20565b90508092505050919050565b600560009054906101000a900460ff16610a9d57600080fd5b3373ffffffffffffffffffffffffffffffffffffffff168173ffffffffffffffffffffffffffffffffffffffff161415610ad657600090505b600073ffffffffffffffffffffffffffffffffffffffff16600960003373ffffffffffffffffffffffffffffffffffffffff1673ffffffffffffffffffffffffffffffffffffffff16815260200190815260200160002060009054906101000a900473ffffffffffffffffffffffffffffffffffffffff1673ffffffffffffffffffffffffffffffffffffffff16148015610bfc57503373ffffffffffffffffffffffffffffffffffffffff16600960003373ffffffffffffffffffffffffffffffffffffffff1673ffffffffffffffffffffffffffffffffffffffff16815260200190815260200160002060009054906101000a900473ffffffffffffffffffffffffffffffffffffffff1673ffffffffffffffffffffffffffffffffffffffff1614155b15610c805780600960003373ffffffffffffffffffffffffffffffffffffffff1673ffffffffffffffffffffffffffffffffffffffff16815260200190815260200160002060006101000a81548173ffffffffffffffffffffffffffffffffffffffff021916908373ffffffffffffffffffffffffffffffffffffffff1602179055505b6000610c8b336106a0565b90506000610c9b8260015461109d565b9050610ce6600660003373ffffffffffffffffffffffffffffffffffffffff1673ffffffffffffffffffffffffffffffffffffffff1681526020019081526020016000205482610ffd565b600660003373ffffffffffffffffffffffffffffffffffffffff1673ffffffffffffffffffffffffffffffffffffffff168152602001908152602001600020819055506000600760003373ffffffffffffffffffffffffffffffffffffffff1673ffffffffffffffffffffffffffffffffffffffff1681526020019081526020016000208190555042600860003373ffffffffffffffffffffffffffffffffffffffff1673ffffffffffffffffffffffffffffffffffffffff16815260200190815260200160002081905550610e6460076000600960003373ffffffffffffffffffffffffffffffffffffffff1673ffffffffffffffffffffffffffffffffffffffff16815260200190815260200160002060009054906101000a900473ffffffffffffffffffffffffffffffffffffffff1673ffffffffffffffffffffffffffffffffffffffff1673ffffffffffffffffffffffffffffffffffffffff16815260200190815260200160002054610e5f84600861109d565b610ffd565b60076000600960003373ffffffffffffffffffffffffffffffffffffffff1673ffffffffffffffffffffffffffffffffffffffff16815260200190815260200160002060009054906101000a900473ffffffffffffffffffffffffffffffffffffffff1673ffffffffffffffffffffffffffffffffffffffff1673ffffffffffffffffffffffffffffffffffffffff16815260200190815260200160002081905550610f1c600a54610f1784600561109d565b610ffd565b600a81905550505050565b610f2f611066565b73ffffffffffffffffffffffffffffffffffffffff1660008054906101000a900473ffffffffffffffffffffffffffffffffffffffff1673ffffffffffffffffffffffffffffffffffffffff1614610fbc576040517f08c379a0000000000000000000000000000000000000000000000000000000008152600401610fb3906113c4565b60405180910390fd5b610fc5816110b3565b50565b60008183610fd69190611413565b905092915050565b6000610ff6610fef83600454611087565b606461109d565b9050919050565b6000818361100b9190611447565b905092915050565b600061105d61102460025484611087565b61105860035461105361104d61103c6002548a611087565b6110486003548c611087565b610ffd565b8961109d565b610ffd565b61109d565b90509392505050565b600033905090565b600081831061107d578161107f565b825b905092915050565b60008183611095919061149d565b905092915050565b600081836110ab9190611526565b905092915050565b600073ffffffffffffffffffffffffffffffffffffffff168173ffffffffffffffffffffffffffffffffffffffff161415611123576040517f08c379a000000000000000000000000000000000000000000000000000000000815260040161111a906115c9565b60405180910390fd5b8073ffffffffffffffffffffffffffffffffffffffff1660008054906101000a900473ffffffffffffffffffffffffffffffffffffffff1673ffffffffffffffffffffffffffffffffffffffff167f8be0079c531659141344cd1fd0a4f28419497f9722a3daafe3b4186f6b6457e060405160405180910390a3806000806101000a81548173ffffffffffffffffffffffffffffffffffffffff021916908373ffffffffffffffffffffffffffffffffffffffff16021790555050565b600080fd5b600073ffffffffffffffffffffffffffffffffffffffff82169050919050565b6000611210826111e5565b9050919050565b61122081611205565b811461122b57600080fd5b50565b60008135905061123d81611217565b92915050565b600060208284031215611259576112586111e0565b5b60006112678482850161122e565b91505092915050565b6000819050919050565b61128381611270565b82525050565b600060208201905061129e600083018461127a565b92915050565b6112ad81611270565b81146112b857600080fd5b50565b6000813590506112ca816112a4565b92915050565b600080604083850312156112e7576112e66111e0565b5b60006112f5858286016112bb565b9250506020611306858286016112bb565b9150509250929050565b600060208284031215611326576113256111e0565b5b6000611334848285016112bb565b91505092915050565b61134681611205565b82525050565b6000602082019050611361600083018461133d565b92915050565b600082825260208201905092915050565b7f4f776e61626c653a2063616c6c6572206973206e6f7420746865206f776e6572600082015250565b60006113ae602083611367565b91506113b982611378565b602082019050919050565b600060208201905081810360008301526113dd816113a1565b9050919050565b7f4e487b7100000000000000000000000000000000000000000000000000000000600052601160045260246000fd5b600061141e82611270565b915061142983611270565b92508282101561143c5761143b6113e4565b5b828203905092915050565b600061145282611270565b915061145d83611270565b9250827fffffffffffffffffffffffffffffffffffffffffffffffffffffffffffffffff03821115611492576114916113e4565b5b828201905092915050565b60006114a882611270565b91506114b383611270565b9250817fffffffffffffffffffffffffffffffffffffffffffffffffffffffffffffffff04831182151516156114ec576114eb6113e4565b5b828202905092915050565b7f4e487b7100000000000000000000000000000000000000000000000000000000600052601260045260246000fd5b600061153182611270565b915061153c83611270565b92508261154c5761154b6114f7565b5b828204905092915050565b7f4f776e61626c653a206e6577206f776e657220697320746865207a65726f206160008201527f6464726573730000000000000000000000000000000000000000000000000000602082015250565b60006115b3602683611367565b91506115be82611557565b604082019050919050565b600060208201905081810360008301526115e2816115a6565b905091905056fea26469706673582212203857049260591b6204d4d4d3a7b3bb7cec0974acc41aa604415e214bec56a2cb64736f6c63430008090033",
			"opcodes": "PUSH1 0x80 PUSH1 0x40 MSTORE PUSH3 0x107AC0 PUSH1 0x1 SSTORE PUSH2 0x2710 PUSH1 0x2 SSTORE PUSH2 0x1388 PUSH1 0x3 SSTORE PUSH1 0x3 PUSH1 0x4 SSTORE PUSH1 0x0 PUSH1 0x5 PUSH1 0x0 PUSH2 0x100 EXP DUP2 SLOAD DUP2 PUSH1 0xFF MUL NOT AND SWAP1 DUP4 ISZERO ISZERO MUL OR SWAP1 SSTORE POP CALLVALUE DUP1 ISZERO PUSH2 0x43 JUMPI PUSH1 0x0 DUP1 REVERT JUMPDEST POP PUSH1 0x0 PUSH2 0x54 PUSH2 0x138 PUSH1 0x20 SHL PUSH1 0x20 SHR JUMP JUMPDEST SWAP1 POP DUP1 PUSH1 0x0 DUP1 PUSH2 0x100 EXP DUP2 SLOAD DUP2 PUSH20 0x029290c564Ef921c56a784AA16C97E930dAF7372 MUL NOT AND SWAP1 DUP4 PUSH20 0x029290c564Ef921c56a784AA16C97E930dAF7372 AND MUL OR SWAP1 SSTORE POP DUP1 PUSH20 0x029290c564Ef921c56a784AA16C97E930dAF7372 AND PUSH1 0x0 PUSH20 0x029290c564Ef921c56a784AA16C97E930dAF7372 AND PUSH32 0x8BE0079C531659141344CD1FD0A4F28419497F9722A3DAAFE3B4186F6B6457E0 PUSH1 0x40 MLOAD PUSH1 0x40 MLOAD DUP1 SWAP2 SUB SWAP1 LOG3 POP CALLER PUSH1 0x5 PUSH1 0x1 PUSH2 0x100 EXP DUP2 SLOAD DUP2 PUSH20 0x029290c564Ef921c56a784AA16C97E930dAF7372 MUL NOT AND SWAP1 DUP4 PUSH20 0x029290c564Ef921c56a784AA16C97E930dAF7372 AND MUL OR SWAP1 SSTORE POP PUSH2 0x140 JUMP JUMPDEST PUSH1 0x0 CALLER SWAP1 POP SWAP1 JUMP JUMPDEST PUSH2 0x161F DUP1 PUSH2 0x14F PUSH1 0x0 CODECOPY PUSH1 0x0 RETURN INVALID PUSH1 0x80 PUSH1 0x40 MSTORE PUSH1 0x4 CALLDATASIZE LT PUSH2 0xE8 JUMPI PUSH1 0x0 CALLDATALOAD PUSH1 0xE0 SHR DUP1 PUSH4 0x4C515B92 GT PUSH2 0x8A JUMPI DUP1 PUSH4 0x8DA5CB5B GT PUSH2 0x59 JUMPI DUP1 PUSH4 0x8DA5CB5B EQ PUSH2 0x2DA JUMPI DUP1 PUSH4 0xC22C9022 EQ PUSH2 0x305 JUMPI DUP1 PUSH4 0xC76EA001 EQ PUSH2 0x342 JUMPI DUP1 PUSH4 0xF2FDE38B EQ PUSH2 0x36B JUMPI PUSH2 0xE8 JUMP JUMPDEST DUP1 PUSH4 0x4C515B92 EQ PUSH2 0x20C JUMPI DUP1 PUSH4 0x60C6171C EQ PUSH2 0x249 JUMPI DUP1 PUSH4 0x715018A6 EQ PUSH2 0x286 JUMPI DUP1 PUSH4 0x78373D58 EQ PUSH2 0x29D JUMPI PUSH2 0xE8 JUMP JUMPDEST DUP1 PUSH4 0x24CAD2EC GT PUSH2 0xC6 JUMPI DUP1 PUSH4 0x24CAD2EC EQ PUSH2 0x171 JUMPI DUP1 PUSH4 0x2A7F3E4B EQ PUSH2 0x188 JUMPI DUP1 PUSH4 0x3C5F07CB EQ PUSH2 0x1C5 JUMPI DUP1 PUSH4 0x4B634B06 EQ PUSH2 0x1CF JUMPI PUSH2 0xE8 JUMP JUMPDEST DUP1 PUSH4 0xC431E93 EQ PUSH2 0xED JUMPI DUP1 PUSH4 0x12065FE0 EQ PUSH2 0x109 JUMPI DUP1 PUSH4 0x1BB8365F EQ PUSH2 0x134 JUMPI JUMPDEST PUSH1 0x0 DUP1 REVERT JUMPDEST PUSH2 0x107 PUSH1 0x4 DUP1 CALLDATASIZE SUB DUP2 ADD SWAP1 PUSH2 0x102 SWAP2 SWAP1 PUSH2 0x1243 JUMP JUMPDEST PUSH2 0x394 JUMP JUMPDEST STOP JUMPDEST CALLVALUE DUP1 ISZERO PUSH2 0x115 JUMPI PUSH1 0x0 DUP1 REVERT JUMPDEST POP PUSH2 0x11E PUSH2 0x4E8 JUMP JUMPDEST PUSH1 0x40 MLOAD PUSH2 0x12B SWAP2 SWAP1 PUSH2 0x1289 JUMP JUMPDEST PUSH1 0x40 MLOAD DUP1 SWAP2 SUB SWAP1 RETURN JUMPDEST CALLVALUE DUP1 ISZERO PUSH2 0x140 JUMPI PUSH1 0x0 DUP1 REVERT JUMPDEST POP PUSH2 0x15B PUSH1 0x4 DUP1 CALLDATASIZE SUB DUP2 ADD SWAP1 PUSH2 0x156 SWAP2 SWAP1 PUSH2 0x12D0 JUMP JUMPDEST PUSH2 0x4F0 JUMP JUMPDEST PUSH1 0x40 MLOAD PUSH2 0x168 SWAP2 SWAP1 PUSH2 0x1289 JUMP JUMPDEST PUSH1 0x40 MLOAD DUP1 SWAP2 SUB SWAP1 RETURN JUMPDEST CALLVALUE DUP1 ISZERO PUSH2 0x17D JUMPI PUSH1 0x0 DUP1 REVERT JUMPDEST POP PUSH2 0x186 PUSH2 0x507 JUMP JUMPDEST STOP JUMPDEST CALLVALUE DUP1 ISZERO PUSH2 0x194 JUMPI PUSH1 0x0 DUP1 REVERT JUMPDEST POP PUSH2 0x1AF PUSH1 0x4 DUP1 CALLDATASIZE SUB DUP2 ADD SWAP1 PUSH2 0x1AA SWAP2 SWAP1 PUSH2 0x1243 JUMP JUMPDEST PUSH2 0x6A0 JUMP JUMPDEST PUSH1 0x40 MLOAD PUSH2 0x1BC SWAP2 SWAP1 PUSH2 0x1289 JUMP JUMPDEST PUSH1 0x40 MLOAD DUP1 SWAP2 SUB SWAP1 RETURN JUMPDEST PUSH2 0x1CD PUSH2 0x6FA JUMP JUMPDEST STOP JUMPDEST CALLVALUE DUP1 ISZERO PUSH2 0x1DB JUMPI PUSH1 0x0 DUP1 REVERT JUMPDEST POP PUSH2 0x1F6 PUSH1 0x4 DUP1 CALLDATASIZE SUB DUP2 ADD SWAP1 PUSH2 0x1F1 SWAP2 SWAP1 PUSH2 0x1243 JUMP JUMPDEST PUSH2 0x7C7 JUMP JUMPDEST PUSH1 0x40 MLOAD PUSH2 0x203 SWAP2 SWAP1 PUSH2 0x1289 JUMP JUMPDEST PUSH1 0x40 MLOAD DUP1 SWAP2 SUB SWAP1 RETURN JUMPDEST CALLVALUE DUP1 ISZERO PUSH2 0x218 JUMPI PUSH1 0x0 DUP1 REVERT JUMPDEST POP PUSH2 0x233 PUSH1 0x4 DUP1 CALLDATASIZE SUB DUP2 ADD SWAP1 PUSH2 0x22E SWAP2 SWAP1 PUSH2 0x1243 JUMP JUMPDEST PUSH2 0x810 JUMP JUMPDEST PUSH1 0x40 MLOAD PUSH2 0x240 SWAP2 SWAP1 PUSH2 0x1289 JUMP JUMPDEST PUSH1 0x40 MLOAD DUP1 SWAP2 SUB SWAP1 RETURN JUMPDEST CALLVALUE DUP1 ISZERO PUSH2 0x255 JUMPI PUSH1 0x0 DUP1 REVERT JUMPDEST POP PUSH2 0x270 PUSH1 0x4 DUP1 CALLDATASIZE SUB DUP2 ADD SWAP1 PUSH2 0x26B SWAP2 SWAP1 PUSH2 0x1310 JUMP JUMPDEST PUSH2 0x8BA JUMP JUMPDEST PUSH1 0x40 MLOAD PUSH2 0x27D SWAP2 SWAP1 PUSH2 0x1289 JUMP JUMPDEST PUSH1 0x40 MLOAD DUP1 SWAP2 SUB SWAP1 RETURN JUMPDEST CALLVALUE DUP1 ISZERO PUSH2 0x292 JUMPI PUSH1 0x0 DUP1 REVERT JUMPDEST POP PUSH2 0x29B PUSH2 0x8CD JUMP JUMPDEST STOP JUMPDEST CALLVALUE DUP1 ISZERO PUSH2 0x2A9 JUMPI PUSH1 0x0 DUP1 REVERT JUMPDEST POP PUSH2 0x2C4 PUSH1 0x4 DUP1 CALLDATASIZE SUB DUP2 ADD SWAP1 PUSH2 0x2BF SWAP2 SWAP1 PUSH2 0x1310 JUMP JUMPDEST PUSH2 0xA20 JUMP JUMPDEST PUSH1 0x40 MLOAD PUSH2 0x2D1 SWAP2 SWAP1 PUSH2 0x1289 JUMP JUMPDEST PUSH1 0x40 MLOAD DUP1 SWAP2 SUB SWAP1 RETURN JUMPDEST CALLVALUE DUP1 ISZERO PUSH2 0x2E6 JUMPI PUSH1 0x0 DUP1 REVERT JUMPDEST POP PUSH2 0x2EF PUSH2 0xA36 JUMP JUMPDEST PUSH1 0x40 MLOAD PUSH2 0x2FC SWAP2 SWAP1 PUSH2 0x134C JUMP JUMPDEST PUSH1 0x40 MLOAD DUP1 SWAP2 SUB SWAP1 RETURN JUMPDEST CALLVALUE DUP1 ISZERO PUSH2 0x311 JUMPI PUSH1 0x0 DUP1 REVERT JUMPDEST POP PUSH2 0x32C PUSH1 0x4 DUP1 CALLDATASIZE SUB DUP2 ADD SWAP1 PUSH2 0x327 SWAP2 SWAP1 PUSH2 0x1243 JUMP JUMPDEST PUSH2 0xA5F JUMP JUMPDEST PUSH1 0x40 MLOAD PUSH2 0x339 SWAP2 SWAP1 PUSH2 0x1289 JUMP JUMPDEST PUSH1 0x40 MLOAD DUP1 SWAP2 SUB SWAP1 RETURN JUMPDEST CALLVALUE DUP1 ISZERO PUSH2 0x34E JUMPI PUSH1 0x0 DUP1 REVERT JUMPDEST POP PUSH2 0x369 PUSH1 0x4 DUP1 CALLDATASIZE SUB DUP2 ADD SWAP1 PUSH2 0x364 SWAP2 SWAP1 PUSH2 0x1243 JUMP JUMPDEST PUSH2 0xA84 JUMP JUMPDEST STOP JUMPDEST CALLVALUE DUP1 ISZERO PUSH2 0x377 JUMPI PUSH1 0x0 DUP1 REVERT JUMPDEST POP PUSH2 0x392 PUSH1 0x4 DUP1 CALLDATASIZE SUB DUP2 ADD SWAP1 PUSH2 0x38D SWAP2 SWAP1 PUSH2 0x1243 JUMP JUMPDEST PUSH2 0xF27 JUMP JUMPDEST STOP JUMPDEST PUSH1 0x5 PUSH1 0x0 SWAP1 SLOAD SWAP1 PUSH2 0x100 EXP SWAP1 DIV PUSH1 0xFF AND PUSH2 0x3AD JUMPI PUSH1 0x0 DUP1 REVERT JUMPDEST PUSH1 0x0 PUSH2 0x3C2 CALLVALUE PUSH2 0x3BD SELFBALANCE CALLVALUE PUSH2 0xFC8 JUMP JUMPDEST PUSH2 0x4F0 JUMP JUMPDEST SWAP1 POP PUSH2 0x3D6 DUP2 PUSH2 0x3D1 DUP4 PUSH2 0xFDE JUMP JUMPDEST PUSH2 0xFC8 JUMP JUMPDEST SWAP1 POP PUSH1 0x0 PUSH2 0x3E3 CALLVALUE PUSH2 0xFDE JUMP JUMPDEST SWAP1 POP PUSH1 0x5 PUSH1 0x1 SWAP1 SLOAD SWAP1 PUSH2 0x100 EXP SWAP1 DIV PUSH20 0x029290c564Ef921c56a784AA16C97E930dAF7372 AND PUSH20 0x029290c564Ef921c56a784AA16C97E930dAF7372 AND PUSH2 0x8FC DUP3 SWAP1 DUP2 ISZERO MUL SWAP1 PUSH1 0x40 MLOAD PUSH1 0x0 PUSH1 0x40 MLOAD DUP1 DUP4 SUB DUP2 DUP6 DUP9 DUP9 CALL SWAP4 POP POP POP POP ISZERO DUP1 ISZERO PUSH2 0x44D JUMPI RETURNDATASIZE PUSH1 0x0 DUP1 RETURNDATACOPY RETURNDATASIZE PUSH1 0x0 REVERT JUMPDEST POP PUSH2 0x497 PUSH1 0x7 PUSH1 0x0 CALLER PUSH20 0x029290c564Ef921c56a784AA16C97E930dAF7372 AND PUSH20 0x029290c564Ef921c56a784AA16C97E930dAF7372 AND DUP2 MSTORE PUSH1 0x20 ADD SWAP1 DUP2 MSTORE PUSH1 0x20 ADD PUSH1 0x0 KECCAK256 SLOAD DUP4 PUSH2 0xFFD JUMP JUMPDEST PUSH1 0x7 PUSH1 0x0 CALLER PUSH20 0x029290c564Ef921c56a784AA16C97E930dAF7372 AND PUSH20 0x029290c564Ef921c56a784AA16C97E930dAF7372 AND DUP2 MSTORE PUSH1 0x20 ADD SWAP1 DUP2 MSTORE PUSH1 0x20 ADD PUSH1 0x0 KECCAK256 DUP2 SWAP1 SSTORE POP PUSH2 0x4E3 DUP4 PUSH2 0xA84 JUMP JUMPDEST POP POP POP JUMP JUMPDEST PUSH1 0x0 SELFBALANCE SWAP1 POP SWAP1 JUMP JUMPDEST PUSH1 0x0 PUSH2 0x4FF DUP4 DUP4 PUSH1 0xA SLOAD PUSH2 0x1013 JUMP JUMPDEST SWAP1 POP SWAP3 SWAP2 POP POP JUMP JUMPDEST PUSH1 0x5 PUSH1 0x0 SWAP1 SLOAD SWAP1 PUSH2 0x100 EXP SWAP1 DIV PUSH1 0xFF AND PUSH2 0x520 JUMPI PUSH1 0x0 DUP1 REVERT JUMPDEST PUSH1 0x0 PUSH2 0x52B CALLER PUSH2 0x6A0 JUMP JUMPDEST SWAP1 POP PUSH1 0x0 PUSH2 0x538 DUP3 PUSH2 0xA20 JUMP JUMPDEST SWAP1 POP PUSH1 0x0 PUSH2 0x545 DUP3 PUSH2 0xFDE JUMP JUMPDEST SWAP1 POP PUSH1 0x0 PUSH1 0x7 PUSH1 0x0 CALLER PUSH20 0x029290c564Ef921c56a784AA16C97E930dAF7372 AND PUSH20 0x029290c564Ef921c56a784AA16C97E930dAF7372 AND DUP2 MSTORE PUSH1 0x20 ADD SWAP1 DUP2 MSTORE PUSH1 0x20 ADD PUSH1 0x0 KECCAK256 DUP2 SWAP1 SSTORE POP TIMESTAMP PUSH1 0x8 PUSH1 0x0 CALLER PUSH20 0x029290c564Ef921c56a784AA16C97E930dAF7372 AND PUSH20 0x029290c564Ef921c56a784AA16C97E930dAF7372 AND DUP2 MSTORE PUSH1 0x20 ADD SWAP1 DUP2 MSTORE PUSH1 0x20 ADD PUSH1 0x0 KECCAK256 DUP2 SWAP1 SSTORE POP PUSH2 0x5DC PUSH1 0xA SLOAD DUP5 PUSH2 0xFFD JUMP JUMPDEST PUSH1 0xA DUP2 SWAP1 SSTORE POP PUSH1 0x5 PUSH1 0x1 SWAP1 SLOAD SWAP1 PUSH2 0x100 EXP SWAP1 DIV PUSH20 0x029290c564Ef921c56a784AA16C97E930dAF7372 AND PUSH20 0x029290c564Ef921c56a784AA16C97E930dAF7372 AND PUSH2 0x8FC DUP3 SWAP1 DUP2 ISZERO MUL SWAP1 PUSH1 0x40 MLOAD PUSH1 0x0 PUSH1 0x40 MLOAD DUP1 DUP4 SUB DUP2 DUP6 DUP9 DUP9 CALL SWAP4 POP POP POP POP ISZERO DUP1 ISZERO PUSH2 0x64A JUMPI RETURNDATASIZE PUSH1 0x0 DUP1 RETURNDATACOPY RETURNDATASIZE PUSH1 0x0 REVERT JUMPDEST POP CALLER PUSH20 0x029290c564Ef921c56a784AA16C97E930dAF7372 AND PUSH2 0x8FC PUSH2 0x66F DUP5 DUP5 PUSH2 0xFC8 JUMP JUMPDEST SWAP1 DUP2 ISZERO MUL SWAP1 PUSH1 0x40 MLOAD PUSH1 0x0 PUSH1 0x40 MLOAD DUP1 DUP4 SUB DUP2 DUP6 DUP9 DUP9 CALL SWAP4 POP POP POP POP ISZERO DUP1 ISZERO PUSH2 0x69A JUMPI RETURNDATASIZE PUSH1 0x0 DUP1 RETURNDATACOPY RETURNDATASIZE PUSH1 0x0 REVERT JUMPDEST POP POP POP POP JUMP JUMPDEST PUSH1 0x0 PUSH2 0x6F3 PUSH1 0x7 PUSH1 0x0 DUP5 PUSH20 0x029290c564Ef921c56a784AA16C97E930dAF7372 AND PUSH20 0x029290c564Ef921c56a784AA16C97E930dAF7372 AND DUP2 MSTORE PUSH1 0x20 ADD SWAP1 DUP2 MSTORE PUSH1 0x20 ADD PUSH1 0x0 KECCAK256 SLOAD PUSH2 0x6EE DUP5 PUSH2 0x810 JUMP JUMPDEST PUSH2 0xFFD JUMP JUMPDEST SWAP1 POP SWAP2 SWAP1 POP JUMP JUMPDEST PUSH2 0x702 PUSH2 0x1066 JUMP JUMPDEST PUSH20 0x029290c564Ef921c56a784AA16C97E930dAF7372 AND PUSH1 0x0 DUP1 SLOAD SWAP1 PUSH2 0x100 EXP SWAP1 DIV PUSH20 0x029290c564Ef921c56a784AA16C97E930dAF7372 AND PUSH20 0x029290c564Ef921c56a784AA16C97E930dAF7372 AND EQ PUSH2 0x78F JUMPI PUSH1 0x40 MLOAD PUSH32 0x8C379A000000000000000000000000000000000000000000000000000000000 DUP2 MSTORE PUSH1 0x4 ADD PUSH2 0x786 SWAP1 PUSH2 0x13C4 JUMP JUMPDEST PUSH1 0x40 MLOAD DUP1 SWAP2 SUB SWAP1 REVERT JUMPDEST PUSH1 0x0 PUSH1 0xA SLOAD EQ PUSH2 0x79E JUMPI PUSH1 0x0 DUP1 REVERT JUMPDEST PUSH1 0x1 PUSH1 0x5 PUSH1 0x0 PUSH2 0x100 EXP DUP2 SLOAD DUP2 PUSH1 0xFF MUL NOT AND SWAP1 DUP4 ISZERO ISZERO MUL OR SWAP1 SSTORE POP PUSH5 0x19254D3800 PUSH1 0xA DUP2 SWAP1 SSTORE POP JUMP JUMPDEST PUSH1 0x0 PUSH1 0x6 PUSH1 0x0 DUP4 PUSH20 0x029290c564Ef921c56a784AA16C97E930dAF7372 AND PUSH20 0x029290c564Ef921c56a784AA16C97E930dAF7372 AND DUP2 MSTORE PUSH1 0x20 ADD SWAP1 DUP2 MSTORE PUSH1 0x20 ADD PUSH1 0x0 KECCAK256 SLOAD SWAP1 POP SWAP2 SWAP1 POP JUMP JUMPDEST PUSH1 0x0 DUP1 PUSH2 0x867 PUSH1 0x1 SLOAD PUSH2 0x862 TIMESTAMP PUSH1 0x8 PUSH1 0x0 DUP9 PUSH20 0x029290c564Ef921c56a784AA16C97E930dAF7372 AND PUSH20 0x029290c564Ef921c56a784AA16C97E930dAF7372 AND DUP2 MSTORE PUSH1 0x20 ADD SWAP1 DUP2 MSTORE PUSH1 0x20 ADD PUSH1 0x0 KECCAK256 SLOAD PUSH2 0xFC8 JUMP JUMPDEST PUSH2 0x106E JUMP JUMPDEST SWAP1 POP PUSH2 0x8B2 DUP2 PUSH1 0x6 PUSH1 0x0 DUP7 PUSH20 0x029290c564Ef921c56a784AA16C97E930dAF7372 AND PUSH20 0x029290c564Ef921c56a784AA16C97E930dAF7372 AND DUP2 MSTORE PUSH1 0x20 ADD SWAP1 DUP2 MSTORE PUSH1 0x20 ADD PUSH1 0x0 KECCAK256 SLOAD PUSH2 0x1087 JUMP JUMPDEST SWAP2 POP POP SWAP2 SWAP1 POP JUMP JUMPDEST PUSH1 0x0 PUSH2 0x8C6 DUP3 SELFBALANCE PUSH2 0x4F0 JUMP JUMPDEST SWAP1 POP SWAP2 SWAP1 POP JUMP JUMPDEST PUSH2 0x8D5 PUSH2 0x1066 JUMP JUMPDEST PUSH20 0x029290c564Ef921c56a784AA16C97E930dAF7372 AND PUSH1 0x0 DUP1 SLOAD SWAP1 PUSH2 0x100 EXP SWAP1 DIV PUSH20 0x029290c564Ef921c56a784AA16C97E930dAF7372 AND PUSH20 0x029290c564Ef921c56a784AA16C97E930dAF7372 AND EQ PUSH2 0x962 JUMPI PUSH1 0x40 MLOAD PUSH32 0x8C379A000000000000000000000000000000000000000000000000000000000 DUP2 MSTORE PUSH1 0x4 ADD PUSH2 0x959 SWAP1 PUSH2 0x13C4 JUMP JUMPDEST PUSH1 0x40 MLOAD DUP1 SWAP2 SUB SWAP1 REVERT JUMPDEST PUSH1 0x0 PUSH20 0x029290c564Ef921c56a784AA16C97E930dAF7372 AND PUSH1 0x0 DUP1 SLOAD SWAP1 PUSH2 0x100 EXP SWAP1 DIV PUSH20 0x029290c564Ef921c56a784AA16C97E930dAF7372 AND PUSH20 0x029290c564Ef921c56a784AA16C97E930dAF7372 AND PUSH32 0x8BE0079C531659141344CD1FD0A4F28419497F9722A3DAAFE3B4186F6B6457E0 PUSH1 0x40 MLOAD PUSH1 0x40 MLOAD DUP1 SWAP2 SUB SWAP1 LOG3 PUSH1 0x0 DUP1 PUSH1 0x0 PUSH2 0x100 EXP DUP2 SLOAD DUP2 PUSH20 0x029290c564Ef921c56a784AA16C97E930dAF7372 MUL NOT AND SWAP1 DUP4 PUSH20 0x029290c564Ef921c56a784AA16C97E930dAF7372 AND MUL OR SWAP1 SSTORE POP JUMP JUMPDEST PUSH1 0x0 PUSH2 0xA2F DUP3 PUSH1 0xA SLOAD SELFBALANCE PUSH2 0x1013 JUMP JUMPDEST SWAP1 POP SWAP2 SWAP1 POP JUMP JUMPDEST PUSH1 0x0 DUP1 PUSH1 0x0 SWAP1 SLOAD SWAP1 PUSH2 0x100 EXP SWAP1 DIV PUSH20 0x029290c564Ef921c56a784AA16C97E930dAF7372 AND SWAP1 POP SWAP1 JUMP JUMPDEST PUSH1 0x0 DUP1 PUSH2 0xA6B DUP4 PUSH2 0x6A0 JUMP JUMPDEST SWAP1 POP PUSH1 0x0 PUSH2 0xA78 DUP3 PUSH2 0xA20 JUMP JUMPDEST SWAP1 POP DUP1 SWAP3 POP POP POP SWAP2 SWAP1 POP JUMP JUMPDEST PUSH1 0x5 PUSH1 0x0 SWAP1 SLOAD SWAP1 PUSH2 0x100 EXP SWAP1 DIV PUSH1 0xFF AND PUSH2 0xA9D JUMPI PUSH1 0x0 DUP1 REVERT JUMPDEST CALLER PUSH20 0x029290c564Ef921c56a784AA16C97E930dAF7372 AND DUP2 PUSH20 0x029290c564Ef921c56a784AA16C97E930dAF7372 AND EQ ISZERO PUSH2 0xAD6 JUMPI PUSH1 0x0 SWAP1 POP JUMPDEST PUSH1 0x0 PUSH20 0x029290c564Ef921c56a784AA16C97E930dAF7372 AND PUSH1 0x9 PUSH1 0x0 CALLER PUSH20 0x029290c564Ef921c56a784AA16C97E930dAF7372 AND PUSH20 0x029290c564Ef921c56a784AA16C97E930dAF7372 AND DUP2 MSTORE PUSH1 0x20 ADD SWAP1 DUP2 MSTORE PUSH1 0x20 ADD PUSH1 0x0 KECCAK256 PUSH1 0x0 SWAP1 SLOAD SWAP1 PUSH2 0x100 EXP SWAP1 DIV PUSH20 0x029290c564Ef921c56a784AA16C97E930dAF7372 AND PUSH20 0x029290c564Ef921c56a784AA16C97E930dAF7372 AND EQ DUP1 ISZERO PUSH2 0xBFC JUMPI POP CALLER PUSH20 0x029290c564Ef921c56a784AA16C97E930dAF7372 AND PUSH1 0x9 PUSH1 0x0 CALLER PUSH20 0x029290c564Ef921c56a784AA16C97E930dAF7372 AND PUSH20 0x029290c564Ef921c56a784AA16C97E930dAF7372 AND DUP2 MSTORE PUSH1 0x20 ADD SWAP1 DUP2 MSTORE PUSH1 0x20 ADD PUSH1 0x0 KECCAK256 PUSH1 0x0 SWAP1 SLOAD SWAP1 PUSH2 0x100 EXP SWAP1 DIV PUSH20 0x029290c564Ef921c56a784AA16C97E930dAF7372 AND PUSH20 0x029290c564Ef921c56a784AA16C97E930dAF7372 AND EQ ISZERO JUMPDEST ISZERO PUSH2 0xC80 JUMPI DUP1 PUSH1 0x9 PUSH1 0x0 CALLER PUSH20 0x029290c564Ef921c56a784AA16C97E930dAF7372 AND PUSH20 0x029290c564Ef921c56a784AA16C97E930dAF7372 AND DUP2 MSTORE PUSH1 0x20 ADD SWAP1 DUP2 MSTORE PUSH1 0x20 ADD PUSH1 0x0 KECCAK256 PUSH1 0x0 PUSH2 0x100 EXP DUP2 SLOAD DUP2 PUSH20 0x029290c564Ef921c56a784AA16C97E930dAF7372 MUL NOT AND SWAP1 DUP4 PUSH20 0x029290c564Ef921c56a784AA16C97E930dAF7372 AND MUL OR SWAP1 SSTORE POP JUMPDEST PUSH1 0x0 PUSH2 0xC8B CALLER PUSH2 0x6A0 JUMP JUMPDEST SWAP1 POP PUSH1 0x0 PUSH2 0xC9B DUP3 PUSH1 0x1 SLOAD PUSH2 0x109D JUMP JUMPDEST SWAP1 POP PUSH2 0xCE6 PUSH1 0x6 PUSH1 0x0 CALLER PUSH20 0x029290c564Ef921c56a784AA16C97E930dAF7372 AND PUSH20 0x029290c564Ef921c56a784AA16C97E930dAF7372 AND DUP2 MSTORE PUSH1 0x20 ADD SWAP1 DUP2 MSTORE PUSH1 0x20 ADD PUSH1 0x0 KECCAK256 SLOAD DUP3 PUSH2 0xFFD JUMP JUMPDEST PUSH1 0x6 PUSH1 0x0 CALLER PUSH20 0x029290c564Ef921c56a784AA16C97E930dAF7372 AND PUSH20 0x029290c564Ef921c56a784AA16C97E930dAF7372 AND DUP2 MSTORE PUSH1 0x20 ADD SWAP1 DUP2 MSTORE PUSH1 0x20 ADD PUSH1 0x0 KECCAK256 DUP2 SWAP1 SSTORE POP PUSH1 0x0 PUSH1 0x7 PUSH1 0x0 CALLER PUSH20 0x029290c564Ef921c56a784AA16C97E930dAF7372 AND PUSH20 0x029290c564Ef921c56a784AA16C97E930dAF7372 AND DUP2 MSTORE PUSH1 0x20 ADD SWAP1 DUP2 MSTORE PUSH1 0x20 ADD PUSH1 0x0 KECCAK256 DUP2 SWAP1 SSTORE POP TIMESTAMP PUSH1 0x8 PUSH1 0x0 CALLER PUSH20 0x029290c564Ef921c56a784AA16C97E930dAF7372 AND PUSH20 0x029290c564Ef921c56a784AA16C97E930dAF7372 AND DUP2 MSTORE PUSH1 0x20 ADD SWAP1 DUP2 MSTORE PUSH1 0x20 ADD PUSH1 0x0 KECCAK256 DUP2 SWAP1 SSTORE POP PUSH2 0xE64 PUSH1 0x7 PUSH1 0x0 PUSH1 0x9 PUSH1 0x0 CALLER PUSH20 0x029290c564Ef921c56a784AA16C97E930dAF7372 AND PUSH20 0x029290c564Ef921c56a784AA16C97E930dAF7372 AND DUP2 MSTORE PUSH1 0x20 ADD SWAP1 DUP2 MSTORE PUSH1 0x20 ADD PUSH1 0x0 KECCAK256 PUSH1 0x0 SWAP1 SLOAD SWAP1 PUSH2 0x100 EXP SWAP1 DIV PUSH20 0x029290c564Ef921c56a784AA16C97E930dAF7372 AND PUSH20 0x029290c564Ef921c56a784AA16C97E930dAF7372 AND PUSH20 0x029290c564Ef921c56a784AA16C97E930dAF7372 AND DUP2 MSTORE PUSH1 0x20 ADD SWAP1 DUP2 MSTORE PUSH1 0x20 ADD PUSH1 0x0 KECCAK256 SLOAD PUSH2 0xE5F DUP5 PUSH1 0x8 PUSH2 0x109D JUMP JUMPDEST PUSH2 0xFFD JUMP JUMPDEST PUSH1 0x7 PUSH1 0x0 PUSH1 0x9 PUSH1 0x0 CALLER PUSH20 0x029290c564Ef921c56a784AA16C97E930dAF7372 AND PUSH20 0x029290c564Ef921c56a784AA16C97E930dAF7372 AND DUP2 MSTORE PUSH1 0x20 ADD SWAP1 DUP2 MSTORE PUSH1 0x20 ADD PUSH1 0x0 KECCAK256 PUSH1 0x0 SWAP1 SLOAD SWAP1 PUSH2 0x100 EXP SWAP1 DIV PUSH20 0x029290c564Ef921c56a784AA16C97E930dAF7372 AND PUSH20 0x029290c564Ef921c56a784AA16C97E930dAF7372 AND PUSH20 0x029290c564Ef921c56a784AA16C97E930dAF7372 AND DUP2 MSTORE PUSH1 0x20 ADD SWAP1 DUP2 MSTORE PUSH1 0x20 ADD PUSH1 0x0 KECCAK256 DUP2 SWAP1 SSTORE POP PUSH2 0xF1C PUSH1 0xA SLOAD PUSH2 0xF17 DUP5 PUSH1 0x5 PUSH2 0x109D JUMP JUMPDEST PUSH2 0xFFD JUMP JUMPDEST PUSH1 0xA DUP2 SWAP1 SSTORE POP POP POP POP JUMP JUMPDEST PUSH2 0xF2F PUSH2 0x1066 JUMP JUMPDEST PUSH20 0x029290c564Ef921c56a784AA16C97E930dAF7372 AND PUSH1 0x0 DUP1 SLOAD SWAP1 PUSH2 0x100 EXP SWAP1 DIV PUSH20 0x029290c564Ef921c56a784AA16C97E930dAF7372 AND PUSH20 0x029290c564Ef921c56a784AA16C97E930dAF7372 AND EQ PUSH2 0xFBC JUMPI PUSH1 0x40 MLOAD PUSH32 0x8C379A000000000000000000000000000000000000000000000000000000000 DUP2 MSTORE PUSH1 0x4 ADD PUSH2 0xFB3 SWAP1 PUSH2 0x13C4 JUMP JUMPDEST PUSH1 0x40 MLOAD DUP1 SWAP2 SUB SWAP1 REVERT JUMPDEST PUSH2 0xFC5 DUP2 PUSH2 0x10B3 JUMP JUMPDEST POP JUMP JUMPDEST PUSH1 0x0 DUP2 DUP4 PUSH2 0xFD6 SWAP2 SWAP1 PUSH2 0x1413 JUMP JUMPDEST SWAP1 POP SWAP3 SWAP2 POP POP JUMP JUMPDEST PUSH1 0x0 PUSH2 0xFF6 PUSH2 0xFEF DUP4 PUSH1 0x4 SLOAD PUSH2 0x1087 JUMP JUMPDEST PUSH1 0x64 PUSH2 0x109D JUMP JUMPDEST SWAP1 POP SWAP2 SWAP1 POP JUMP JUMPDEST PUSH1 0x0 DUP2 DUP4 PUSH2 0x100B SWAP2 SWAP1 PUSH2 0x1447 JUMP JUMPDEST SWAP1 POP SWAP3 SWAP2 POP POP JUMP JUMPDEST PUSH1 0x0 PUSH2 0x105D PUSH2 0x1024 PUSH1 0x2 SLOAD DUP5 PUSH2 0x1087 JUMP JUMPDEST PUSH2 0x1058 PUSH1 0x3 SLOAD PUSH2 0x1053 PUSH2 0x104D PUSH2 0x103C PUSH1 0x2 SLOAD DUP11 PUSH2 0x1087 JUMP JUMPDEST PUSH2 0x1048 PUSH1 0x3 SLOAD DUP13 PUSH2 0x1087 JUMP JUMPDEST PUSH2 0xFFD JUMP JUMPDEST DUP10 PUSH2 0x109D JUMP JUMPDEST PUSH2 0xFFD JUMP JUMPDEST PUSH2 0x109D JUMP JUMPDEST SWAP1 POP SWAP4 SWAP3 POP POP POP JUMP JUMPDEST PUSH1 0x0 CALLER SWAP1 POP SWAP1 JUMP JUMPDEST PUSH1 0x0 DUP2 DUP4 LT PUSH2 0x107D JUMPI DUP2 PUSH2 0x107F JUMP JUMPDEST DUP3 JUMPDEST SWAP1 POP SWAP3 SWAP2 POP POP JUMP JUMPDEST PUSH1 0x0 DUP2 DUP4 PUSH2 0x1095 SWAP2 SWAP1 PUSH2 0x149D JUMP JUMPDEST SWAP1 POP SWAP3 SWAP2 POP POP JUMP JUMPDEST PUSH1 0x0 DUP2 DUP4 PUSH2 0x10AB SWAP2 SWAP1 PUSH2 0x1526 JUMP JUMPDEST SWAP1 POP SWAP3 SWAP2 POP POP JUMP JUMPDEST PUSH1 0x0 PUSH20 0x029290c564Ef921c56a784AA16C97E930dAF7372 AND DUP2 PUSH20 0x029290c564Ef921c56a784AA16C97E930dAF7372 AND EQ ISZERO PUSH2 0x1123 JUMPI PUSH1 0x40 MLOAD PUSH32 0x8C379A000000000000000000000000000000000000000000000000000000000 DUP2 MSTORE PUSH1 0x4 ADD PUSH2 0x111A SWAP1 PUSH2 0x15C9 JUMP JUMPDEST PUSH1 0x40 MLOAD DUP1 SWAP2 SUB SWAP1 REVERT JUMPDEST DUP1 PUSH20 0x029290c564Ef921c56a784AA16C97E930dAF7372 AND PUSH1 0x0 DUP1 SLOAD SWAP1 PUSH2 0x100 EXP SWAP1 DIV PUSH20 0x029290c564Ef921c56a784AA16C97E930dAF7372 AND PUSH20 0x029290c564Ef921c56a784AA16C97E930dAF7372 AND PUSH32 0x8BE0079C531659141344CD1FD0A4F28419497F9722A3DAAFE3B4186F6B6457E0 PUSH1 0x40 MLOAD PUSH1 0x40 MLOAD DUP1 SWAP2 SUB SWAP1 LOG3 DUP1 PUSH1 0x0 DUP1 PUSH2 0x100 EXP DUP2 SLOAD DUP2 PUSH20 0x029290c564Ef921c56a784AA16C97E930dAF7372 MUL NOT AND SWAP1 DUP4 PUSH20 0x029290c564Ef921c56a784AA16C97E930dAF7372 AND MUL OR SWAP1 SSTORE POP POP JUMP JUMPDEST PUSH1 0x0 DUP1 REVERT JUMPDEST PUSH1 0x0 PUSH20 0x029290c564Ef921c56a784AA16C97E930dAF7372 DUP3 AND SWAP1 POP SWAP2 SWAP1 POP JUMP JUMPDEST PUSH1 0x0 PUSH2 0x1210 DUP3 PUSH2 0x11E5 JUMP JUMPDEST SWAP1 POP SWAP2 SWAP1 POP JUMP JUMPDEST PUSH2 0x1220 DUP2 PUSH2 0x1205 JUMP JUMPDEST DUP2 EQ PUSH2 0x122B JUMPI PUSH1 0x0 DUP1 REVERT JUMPDEST POP JUMP JUMPDEST PUSH1 0x0 DUP2 CALLDATALOAD SWAP1 POP PUSH2 0x123D DUP2 PUSH2 0x1217 JUMP JUMPDEST SWAP3 SWAP2 POP POP JUMP JUMPDEST PUSH1 0x0 PUSH1 0x20 DUP3 DUP5 SUB SLT ISZERO PUSH2 0x1259 JUMPI PUSH2 0x1258 PUSH2 0x11E0 JUMP JUMPDEST JUMPDEST PUSH1 0x0 PUSH2 0x1267 DUP5 DUP3 DUP6 ADD PUSH2 0x122E JUMP JUMPDEST SWAP2 POP POP SWAP3 SWAP2 POP POP JUMP JUMPDEST PUSH1 0x0 DUP2 SWAP1 POP SWAP2 SWAP1 POP JUMP JUMPDEST PUSH2 0x1283 DUP2 PUSH2 0x1270 JUMP JUMPDEST DUP3 MSTORE POP POP JUMP JUMPDEST PUSH1 0x0 PUSH1 0x20 DUP3 ADD SWAP1 POP PUSH2 0x129E PUSH1 0x0 DUP4 ADD DUP5 PUSH2 0x127A JUMP JUMPDEST SWAP3 SWAP2 POP POP JUMP JUMPDEST PUSH2 0x12AD DUP2 PUSH2 0x1270 JUMP JUMPDEST DUP2 EQ PUSH2 0x12B8 JUMPI PUSH1 0x0 DUP1 REVERT JUMPDEST POP JUMP JUMPDEST PUSH1 0x0 DUP2 CALLDATALOAD SWAP1 POP PUSH2 0x12CA DUP2 PUSH2 0x12A4 JUMP JUMPDEST SWAP3 SWAP2 POP POP JUMP JUMPDEST PUSH1 0x0 DUP1 PUSH1 0x40 DUP4 DUP6 SUB SLT ISZERO PUSH2 0x12E7 JUMPI PUSH2 0x12E6 PUSH2 0x11E0 JUMP JUMPDEST JUMPDEST PUSH1 0x0 PUSH2 0x12F5 DUP6 DUP3 DUP7 ADD PUSH2 0x12BB JUMP JUMPDEST SWAP3 POP POP PUSH1 0x20 PUSH2 0x1306 DUP6 DUP3 DUP7 ADD PUSH2 0x12BB JUMP JUMPDEST SWAP2 POP POP SWAP3 POP SWAP3 SWAP1 POP JUMP JUMPDEST PUSH1 0x0 PUSH1 0x20 DUP3 DUP5 SUB SLT ISZERO PUSH2 0x1326 JUMPI PUSH2 0x1325 PUSH2 0x11E0 JUMP JUMPDEST JUMPDEST PUSH1 0x0 PUSH2 0x1334 DUP5 DUP3 DUP6 ADD PUSH2 0x12BB JUMP JUMPDEST SWAP2 POP POP SWAP3 SWAP2 POP POP JUMP JUMPDEST PUSH2 0x1346 DUP2 PUSH2 0x1205 JUMP JUMPDEST DUP3 MSTORE POP POP JUMP JUMPDEST PUSH1 0x0 PUSH1 0x20 DUP3 ADD SWAP1 POP PUSH2 0x1361 PUSH1 0x0 DUP4 ADD DUP5 PUSH2 0x133D JUMP JUMPDEST SWAP3 SWAP2 POP POP JUMP JUMPDEST PUSH1 0x0 DUP3 DUP3 MSTORE PUSH1 0x20 DUP3 ADD SWAP1 POP SWAP3 SWAP2 POP POP JUMP JUMPDEST PUSH32 0x4F776E61626C653A2063616C6C6572206973206E6F7420746865206F776E6572 PUSH1 0x0 DUP3 ADD MSTORE POP JUMP JUMPDEST PUSH1 0x0 PUSH2 0x13AE PUSH1 0x20 DUP4 PUSH2 0x1367 JUMP JUMPDEST SWAP2 POP PUSH2 0x13B9 DUP3 PUSH2 0x1378 JUMP JUMPDEST PUSH1 0x20 DUP3 ADD SWAP1 POP SWAP2 SWAP1 POP JUMP JUMPDEST PUSH1 0x0 PUSH1 0x20 DUP3 ADD SWAP1 POP DUP2 DUP2 SUB PUSH1 0x0 DUP4 ADD MSTORE PUSH2 0x13DD DUP2 PUSH2 0x13A1 JUMP JUMPDEST SWAP1 POP SWAP2 SWAP1 POP JUMP JUMPDEST PUSH32 0x4E487B7100000000000000000000000000000000000000000000000000000000 PUSH1 0x0 MSTORE PUSH1 0x11 PUSH1 0x4 MSTORE PUSH1 0x24 PUSH1 0x0 REVERT JUMPDEST PUSH1 0x0 PUSH2 0x141E DUP3 PUSH2 0x1270 JUMP JUMPDEST SWAP2 POP PUSH2 0x1429 DUP4 PUSH2 0x1270 JUMP JUMPDEST SWAP3 POP DUP3 DUP3 LT ISZERO PUSH2 0x143C JUMPI PUSH2 0x143B PUSH2 0x13E4 JUMP JUMPDEST JUMPDEST DUP3 DUP3 SUB SWAP1 POP SWAP3 SWAP2 POP POP JUMP JUMPDEST PUSH1 0x0 PUSH2 0x1452 DUP3 PUSH2 0x1270 JUMP JUMPDEST SWAP2 POP PUSH2 0x145D DUP4 PUSH2 0x1270 JUMP JUMPDEST SWAP3 POP DUP3 PUSH32 0xFFFFFFFFFFFFFFFFFFFFFFFFFFFFFFFFFFFFFFFFFFFFFFFFFFFFFFFFFFFFFFFF SUB DUP3 GT ISZERO PUSH2 0x1492 JUMPI PUSH2 0x1491 PUSH2 0x13E4 JUMP JUMPDEST JUMPDEST DUP3 DUP3 ADD SWAP1 POP SWAP3 SWAP2 POP POP JUMP JUMPDEST PUSH1 0x0 PUSH2 0x14A8 DUP3 PUSH2 0x1270 JUMP JUMPDEST SWAP2 POP PUSH2 0x14B3 DUP4 PUSH2 0x1270 JUMP JUMPDEST SWAP3 POP DUP2 PUSH32 0xFFFFFFFFFFFFFFFFFFFFFFFFFFFFFFFFFFFFFFFFFFFFFFFFFFFFFFFFFFFFFFFF DIV DUP4 GT DUP3 ISZERO ISZERO AND ISZERO PUSH2 0x14EC JUMPI PUSH2 0x14EB PUSH2 0x13E4 JUMP JUMPDEST JUMPDEST DUP3 DUP3 MUL SWAP1 POP SWAP3 SWAP2 POP POP JUMP JUMPDEST PUSH32 0x4E487B7100000000000000000000000000000000000000000000000000000000 PUSH1 0x0 MSTORE PUSH1 0x12 PUSH1 0x4 MSTORE PUSH1 0x24 PUSH1 0x0 REVERT JUMPDEST PUSH1 0x0 PUSH2 0x1531 DUP3 PUSH2 0x1270 JUMP JUMPDEST SWAP2 POP PUSH2 0x153C DUP4 PUSH2 0x1270 JUMP JUMPDEST SWAP3 POP DUP3 PUSH2 0x154C JUMPI PUSH2 0x154B PUSH2 0x14F7 JUMP JUMPDEST JUMPDEST DUP3 DUP3 DIV SWAP1 POP SWAP3 SWAP2 POP POP JUMP JUMPDEST PUSH32 0x4F776E61626C653A206E6577206F776E657220697320746865207A65726F2061 PUSH1 0x0 DUP3 ADD MSTORE PUSH32 0x6464726573730000000000000000000000000000000000000000000000000000 PUSH1 0x20 DUP3 ADD MSTORE POP JUMP JUMPDEST PUSH1 0x0 PUSH2 0x15B3 PUSH1 0x26 DUP4 PUSH2 0x1367 JUMP JUMPDEST SWAP2 POP PUSH2 0x15BE DUP3 PUSH2 0x1557 JUMP JUMPDEST PUSH1 0x40 DUP3 ADD SWAP1 POP SWAP2 SWAP1 POP JUMP JUMPDEST PUSH1 0x0 PUSH1 0x20 DUP3 ADD SWAP1 POP DUP2 DUP2 SUB PUSH1 0x0 DUP4 ADD MSTORE PUSH2 0x15E2 DUP2 PUSH2 0x15A6 JUMP JUMPDEST SWAP1 POP SWAP2 SWAP1 POP JUMP INVALID LOG2 PUSH5 0x6970667358 0x22 SLT KECCAK256 CODESIZE JUMPI DIV SWAP3 PUSH1 0x59 SHL PUSH3 0x4D4D4 0xD3 0xA7 0xB3 0xBB PUSH29 0xEC0974ACC41AA604415E214BEC56A2CB64736F6C634300080900330000 "
		},
		"gasEstimates": {
			"creation": {
				"codeDepositCost": "1132600",
				"executionCost": "infinite",
				"totalCost": "infinite"
			},
			"external": {
				"BuryGold(address)": "infinite",
				"NuggetRewards(address)": "infinite",
				"buyGold(address)": "infinite",
				"calculateGoldBuy(uint256,uint256)": "infinite",
				"calculateGoldBuySimple(uint256)": "infinite",
				"calculateGoldsell(uint256)": "infinite",
				"getBalance()": "385",
				"getGoldSinceLastBury(address)": "infinite",
				"getMyGold(address)": "infinite",
				"getMyMiners(address)": "2930",
				"owner()": "2544",
				"renounceOwnership()": "30358",
				"seedMarket()": "50893",
				"sellGold()": "infinite",
				"transferOwnership(address)": "30757"
			},
			"internal": {
				"calculateTrade(uint256,uint256,uint256)": "infinite",
				"devFee(uint256)": "infinite",
				"min(uint256,uint256)": "64"
			}
		},
		"methodIdentifiers": {
			"BuryGold(address)": "c76ea001",
			"NuggetRewards(address)": "c22c9022",
			"buyGold(address)": "0c431e93",
			"calculateGoldBuy(uint256,uint256)": "1bb8365f",
			"calculateGoldBuySimple(uint256)": "60c6171c",
			"calculateGoldsell(uint256)": "78373d58",
			"getBalance()": "12065fe0",
			"getGoldSinceLastBury(address)": "4c515b92",
			"getMyGold(address)": "2a7f3e4b",
			"getMyMiners(address)": "4b634b06",
			"owner()": "8da5cb5b",
			"renounceOwnership()": "715018a6",
			"seedMarket()": "3c5f07cb",
			"sellGold()": "24cad2ec",
			"transferOwnership(address)": "f2fde38b"
		}
	},
	"abi": [
		{
			"inputs": [],
			"stateMutability": "nonpayable",
			"type": "constructor"
		},
		{
			"anonymous": false,
			"inputs": [
				{
					"indexed": true,
					"internalType": "address",
					"name": "previousOwner",
					"type": "address"
				},
				{
					"indexed": true,
					"internalType": "address",
					"name": "newOwner",
					"type": "address"
				}
			],
			"name": "OwnershipTransferred",
			"type": "event"
		},
		{
			"inputs": [
				{
					"internalType": "address",
					"name": "ref",
					"type": "address"
				}
			],
			"name": "BuryGold",
			"outputs": [],
			"stateMutability": "nonpayable",
			"type": "function"
		},
		{
			"inputs": [
				{
					"internalType": "address",
					"name": "adr",
					"type": "address"
				}
			],
			"name": "NuggetRewards",
			"outputs": [
				{
					"internalType": "uint256",
					"name": "",
					"type": "uint256"
				}
			],
			"stateMutability": "view",
			"type": "function"
		},
		{
			"inputs": [
				{
					"internalType": "address",
					"name": "ref",
					"type": "address"
				}
			],
			"name": "buyGold",
			"outputs": [],
			"stateMutability": "payable",
			"type": "function"
		},
		{
			"inputs": [
				{
					"internalType": "uint256",
					"name": "eth",
					"type": "uint256"
				},
				{
					"internalType": "uint256",
					"name": "contractBalance",
					"type": "uint256"
				}
			],
			"name": "calculateGoldBuy",
			"outputs": [
				{
					"internalType": "uint256",
					"name": "",
					"type": "uint256"
				}
			],
			"stateMutability": "view",
			"type": "function"
		},
		{
			"inputs": [
				{
					"internalType": "uint256",
					"name": "eth",
					"type": "uint256"
				}
			],
			"name": "calculateGoldBuySimple",
			"outputs": [
				{
					"internalType": "uint256",
					"name": "",
					"type": "uint256"
				}
			],
			"stateMutability": "view",
			"type": "function"
		},
		{
			"inputs": [
				{
					"internalType": "uint256",
					"name": "Gold",
					"type": "uint256"
				}
			],
			"name": "calculateGoldsell",
			"outputs": [
				{
					"internalType": "uint256",
					"name": "",
					"type": "uint256"
				}
			],
			"stateMutability": "view",
			"type": "function"
		},
		{
			"inputs": [],
			"name": "getBalance",
			"outputs": [
				{
					"internalType": "uint256",
					"name": "",
					"type": "uint256"
				}
			],
			"stateMutability": "view",
			"type": "function"
		},
		{
			"inputs": [
				{
					"internalType": "address",
					"name": "adr",
					"type": "address"
				}
			],
			"name": "getGoldSinceLastBury",
			"outputs": [
				{
					"internalType": "uint256",
					"name": "",
					"type": "uint256"
				}
			],
			"stateMutability": "view",
			"type": "function"
		},
		{
			"inputs": [
				{
					"internalType": "address",
					"name": "adr",
					"type": "address"
				}
			],
			"name": "getMyGold",
			"outputs": [
				{
					"internalType": "uint256",
					"name": "",
					"type": "uint256"
				}
			],
			"stateMutability": "view",
			"type": "function"
		},
		{
			"inputs": [
				{
					"internalType": "address",
					"name": "adr",
					"type": "address"
				}
			],
			"name": "getMyMiners",
			"outputs": [
				{
					"internalType": "uint256",
					"name": "",
					"type": "uint256"
				}
			],
			"stateMutability": "view",
			"type": "function"
		},
		{
			"inputs": [],
			"name": "owner",
			"outputs": [
				{
					"internalType": "address",
					"name": "",
					"type": "address"
				}
			],
			"stateMutability": "view",
			"type": "function"
		},
		{
			"inputs": [],
			"name": "renounceOwnership",
			"outputs": [],
			"stateMutability": "nonpayable",
			"type": "function"
		},
		{
			"inputs": [],
			"name": "seedMarket",
			"outputs": [],
			"stateMutability": "payable",
			"type": "function"
		},
		{
			"inputs": [],
			"name": "sellGold",
			"outputs": [],
			"stateMutability": "nonpayable",
			"type": "function"
		},
		{
			"inputs": [
				{
					"internalType": "address",
					"name": "newOwner",
					"type": "address"
				}
			],
			"name": "transferOwnership",
			"outputs": [],
			"stateMutability": "nonpayable",
			"type": "function"
		}
	]
}